{
    "contractName": "CoShoe",
    "abi": [
        {
            "inputs": [],
            "stateMutability": "nonpayable",
            "type": "constructor"
        },
        {
            "inputs": [
                {
                    "internalType": "string",
                    "name": "_name",
                    "type": "string"
                },
                {
                    "internalType": "string",
                    "name": "_image",
                    "type": "string"
                }
            ],
            "name": "buyShoe",
            "outputs": [],
            "stateMutability": "payable",
            "type": "function"
        },
        {
            "inputs": [],
            "name": "checkPurchases",
            "outputs": [
                {
                    "internalType": "bool[100]",
                    "name": "",
                    "type": "bool[100]"
                }
            ],
            "stateMutability": "view",
            "type": "function"
        },
        {
            "inputs": [],
            "name": "countShoes",
            "outputs": [
                {
                    "internalType": "uint256",
                    "name": "",
                    "type": "uint256"
                }
            ],
            "stateMutability": "view",
            "type": "function"
        },
        {
            "inputs": [
                {
                    "internalType": "uint256",
                    "name": "",
                    "type": "uint256"
                }
            ],
            "name": "shoes",
            "outputs": [
                {
                    "internalType": "address",
                    "name": "owner",
                    "type": "address"
                },
                {
                    "internalType": "string",
                    "name": "name",
                    "type": "string"
                },
                {
                    "internalType": "string",
                    "name": "image",
                    "type": "string"
                },
                {
                    "internalType": "bool",
                    "name": "sold",
                    "type": "bool"
                }
            ],
            "stateMutability": "view",
            "type": "function"
        }
    ],
    "bytecode": "60806040526706f05b59d3b20000600055600060015534801561002157600080fd5b5060005b606481101561013f57610036610145565b5060408051608081018252338152815160208082018452600080835281840192835284518083018652818152948401949094526060830184905260028054600181018255945282517f405787fa12a823e0f2b7631cc41b3ba8828b3321ca811111fa75cd3aa3bb5ace600490950294850180546001600160a01b0319166001600160a01b0390921691909117815591518051939485946100fe937f405787fa12a823e0f2b7631cc41b3ba8828b3321ca811111fa75cd3aa3bb5acf9092019290910190610178565b506040820151805161011a916002840191602090910190610178565b50606091909101516003909101805460ff191691151591909117905550600101610025565b50610213565b604051806080016040528060006001600160a01b0316815260200160608152602001606081526020016000151581525090565b828054600181600116156101000203166002900490600052602060002090601f016020900481019282601f106101b957805160ff19168380011785556101e6565b828001600101855582156101e6579182015b828111156101e65782518255916020019190600101906101cb565b506101f29291506101f6565b5090565b61021091905b808211156101f257600081556001016101fc565b90565b610707806102226000396000f3fe60806040526004361061003f5760003560e01c80632c01f3b014610044578063540a2f4f1461006b578063558a2b8b1461019a578063607473cf146101e8575b600080fd5b34801561005057600080fd5b50610059610314565b60408051918252519081900360200190f35b6101986004803603604081101561008157600080fd5b81019060208101813564010000000081111561009c57600080fd5b8201836020820111156100ae57600080fd5b803590602001918460018302840111640100000000831117156100d057600080fd5b91908080601f016020809104026020016040519081016040528093929190818152602001838380828437600092019190915250929594936020810193503591505064010000000081111561012357600080fd5b82018360208201111561013557600080fd5b8035906020019184600183028401116401000000008311171561015757600080fd5b91908080601f01602080910402602001604051908101604052809392919081815260200183838082843760009201919091525092955061031b945050505050565b005b3480156101a657600080fd5b506101af610432565b6040518082610c8080838360005b838110156101d55781810151838201526020016101bd565b5050505090500191505060405180910390f35b3480156101f457600080fd5b506102126004803603602081101561020b57600080fd5b5035610496565b60405180856001600160a01b03166001600160a01b03168152602001806020018060200184151515158152602001838103835286818151815260200191508051906020019080838360005b8381101561027557818101518382015260200161025d565b50505050905090810190601f1680156102a25780820380516001836020036101000a031916815260200191505b50838103825285518152855160209182019187019080838360005b838110156102d55781810151838201526020016102bd565b50505050905090810190601f1680156103025780820380516001836020036101000a031916815260200191505b50965050505050505060405180910390f35b6002545b90565b60025461036f576040805162461bcd60e51b815260206004820152601f60248201527f4e6f2053686f6573206176616c6961626c6520666f7220707572636861736500604482015290519081900360640190fd5b60005434146103af5760405162461bcd60e51b81526004018080602001828103825260258152602001806106ad6025913960400191505060405180910390fd5b600154600280546000928103600019019081106103c857fe5b600091825260209182902060049091020180546001600160a01b031916331781558451909250610400916001840191908601906105f5565b50815161041690600283019060208501906105f5565b50600301805460ff191660019081179091558054810190555050565b61043a610673565b610442610673565b60005b6064811015610490576002818154811061045b57fe5b600091825260209091206003600490920201015460ff1682826064811061047e57fe5b91151560209092020152600101610445565b50905090565b600281815481106104a357fe5b600091825260209182902060049091020180546001808301805460408051601f60026000199685161561010002969096019093169490940491820187900487028401870190528083526001600160a01b0390931695509293909291908301828280156105505780601f1061052557610100808354040283529160200191610550565b820191906000526020600020905b81548152906001019060200180831161053357829003601f168201915b50505060028085018054604080516020601f60001961010060018716150201909416959095049283018590048502810185019091528181529596959450909250908301828280156105e25780601f106105b7576101008083540402835291602001916105e2565b820191906000526020600020905b8154815290600101906020018083116105c557829003601f168201915b5050506003909301549192505060ff1684565b828054600181600116156101000203166002900490600052602060002090601f016020900481019282601f1061063657805160ff1916838001178555610663565b82800160010185558215610663579182015b82811115610663578251825591602001919060010190610648565b5061066f929150610692565b5090565b60405180610c8001604052806064906020820280388339509192915050565b61031891905b8082111561066f576000815560010161069856fe45746865722073656e74206973206e6f7420657175616c20746f2073686f65207072696365a264697066735822122067829b96950305c574849a27be844e36c3e53763b569907565e04e318bbb11fb64736f6c63430006010033",
    "sourcePath": "/home/mikea/BlockchainDev/FTC_Tuts/CoShoe/contracts/CoShoe.sol",
    "compiler": {
        "name": "solc",
        "version": "0.6.1+commit.e6f7d5a4"
    },
    "functionHashes": {
        "buyShoe(string,string)": "540a2f4f",
        "checkPurchases()": "558a2b8b",
        "countShoes()": "2c01f3b0",
        "shoes(uint256)": "607473cf"
    },
    "gasEstimates": {
        "creation": {
            "codeDepositCost": "359800",
            "executionCost": "infinite",
            "totalCost": "infinite"
        },
        "external": {
            "buyShoe(string,string)": "infinite",
            "checkPurchases()": "infinite",
            "countShoes()": "977",
            "shoes(uint256)": "infinite"
        }
    }
}