{
  "contractName": "CoShoe",
  "abi": [
    {
      "inputs": [],
      "payable": false,
      "stateMutability": "nonpayable",
      "type": "constructor"
    },
    {
      "constant": true,
      "inputs": [
        {
          "internalType": "uint256",
          "name": "",
          "type": "uint256"
        }
      ],
      "name": "shoeIdToShoe",
      "outputs": [
        {
          "internalType": "address",
          "name": "owner",
          "type": "address"
        },
        {
          "internalType": "string",
          "name": "name",
          "type": "string"
        },
        {
          "internalType": "string",
          "name": "image",
          "type": "string"
        },
        {
          "internalType": "bool",
          "name": "sold",
          "type": "bool"
        }
      ],
      "payable": false,
      "stateMutability": "view",
      "type": "function"
    },
    {
      "constant": true,
      "inputs": [
        {
          "internalType": "uint256",
          "name": "",
          "type": "uint256"
        }
      ],
      "name": "shoes",
      "outputs": [
        {
          "internalType": "address",
          "name": "owner",
          "type": "address"
        },
        {
          "internalType": "string",
          "name": "name",
          "type": "string"
        },
        {
          "internalType": "string",
          "name": "image",
          "type": "string"
        },
        {
          "internalType": "bool",
          "name": "sold",
          "type": "bool"
        }
      ],
      "payable": false,
      "stateMutability": "view",
      "type": "function"
    },
    {
      "constant": true,
      "inputs": [],
      "name": "countShoes",
      "outputs": [
        {
          "internalType": "uint256",
          "name": "",
          "type": "uint256"
        }
      ],
      "payable": false,
      "stateMutability": "view",
      "type": "function"
    },
    {
      "constant": true,
      "inputs": [],
      "name": "countShoesSold",
      "outputs": [
        {
          "internalType": "uint256",
          "name": "",
          "type": "uint256"
        }
      ],
      "payable": false,
      "stateMutability": "view",
      "type": "function"
    },
    {
      "constant": false,
      "inputs": [
        {
          "internalType": "string",
          "name": "_name",
          "type": "string"
        },
        {
          "internalType": "string",
          "name": "_image",
          "type": "string"
        }
      ],
      "name": "buyShoe",
      "outputs": [],
      "payable": true,
      "stateMutability": "payable",
      "type": "function"
    },
    {
      "constant": true,
      "inputs": [],
      "name": "checkPurchases",
      "outputs": [
        {
          "internalType": "bool[100]",
          "name": "",
          "type": "bool[100]"
        }
      ],
      "payable": false,
      "stateMutability": "view",
      "type": "function"
    }
  ],
  "bytecode": "0x60806040526706f05b59d3b20000600055600060015534801561002157600080fd5b5060008090505b606481101561017357610039610179565b60405180608001604052803373ffffffffffffffffffffffffffffffffffffffff1681526020016040518060200160405280600081525081526020016040518060200160405280600081525081526020016000151581525090506002819080600181540180825580915050906001820390600052602060002090600402016000909192909190915060008201518160000160006101000a81548173ffffffffffffffffffffffffffffffffffffffff021916908373ffffffffffffffffffffffffffffffffffffffff16021790555060208201518160010190805190602001906101249291906101b9565b5060408201518160020190805190602001906101419291906101b9565b5060608201518160030160006101000a81548160ff021916908315150217905550505050508080600101915050610028565b5061025e565b6040518060800160405280600073ffffffffffffffffffffffffffffffffffffffff16815260200160608152602001606081526020016000151581525090565b828054600181600116156101000203166002900490600052602060002090601f016020900481019282601f106101fa57805160ff1916838001178555610228565b82800160010185558215610228579182015b8281111561022757825182559160200191906001019061020c565b5b5090506102359190610239565b5090565b61025b91905b8082111561025757600081600090555060010161023f565b5090565b90565b610b918061026d6000396000f3fe6080604052600436106100555760003560e01c80632c01f3b01461005a578063540a2f4f14610085578063558a2b8b146101d7578063607473cf1461022a578063bcd0720f14610388578063f6bf233e146103b3575b600080fd5b34801561006657600080fd5b5061006f610511565b6040518082815260200191505060405180910390f35b6101d56004803603604081101561009b57600080fd5b81019080803590602001906401000000008111156100b857600080fd5b8201836020820111156100ca57600080fd5b803590602001918460018302840111640100000000831117156100ec57600080fd5b91908080601f016020809104026020016040519081016040528093929190818152602001838380828437600081840152601f19601f8201169050808301925050505050505091929192908035906020019064010000000081111561014f57600080fd5b82018360208201111561016157600080fd5b8035906020019184600183028401116401000000008311171561018357600080fd5b91908080601f016020809104026020016040519081016040528093929190818152602001838380828437600081840152601f19601f82011690508083019250505050505050919291929050505061051e565b005b3480156101e357600080fd5b506101ec6106c3565b6040518082606460200280838360005b838110156102175780820151818401526020810190506101fc565b5050505090500191505060405180910390f35b34801561023657600080fd5b506102636004803603602081101561024d57600080fd5b810190808035906020019092919050505061073e565b604051808573ffffffffffffffffffffffffffffffffffffffff1673ffffffffffffffffffffffffffffffffffffffff168152602001806020018060200184151515158152602001838103835286818151815260200191508051906020019080838360005b838110156102e35780820151818401526020810190506102c8565b50505050905090810190601f1680156103105780820380516001836020036101000a031916815260200191505b50838103825285818151815260200191508051906020019080838360005b8381101561034957808201518184015260208101905061032e565b50505050905090810190601f1680156103765780820380516001836020036101000a031916815260200191505b50965050505050505060405180910390f35b34801561039457600080fd5b5061039d6108d8565b6040518082815260200191505060405180910390f35b3480156103bf57600080fd5b506103ec600480360360208110156103d657600080fd5b81019080803590602001909291905050506108e2565b604051808573ffffffffffffffffffffffffffffffffffffffff1673ffffffffffffffffffffffffffffffffffffffff168152602001806020018060200184151515158152602001838103835286818151815260200191508051906020019080838360005b8381101561046c578082015181840152602081019050610451565b50505050905090810190601f1680156104995780820380516001836020036101000a031916815260200191505b50838103825285818151815260200191508051906020019080838360005b838110156104d25780820151818401526020810190506104b7565b50505050905090810190601f1680156104ff5780820380516001836020036101000a031916815260200191505b50965050505050505060405180910390f35b6000600280549050905090565b606460015410610596576040517f08c379a000000000000000000000000000000000000000000000000000000000815260040180806020018281038252601f8152602001807f4e6f2053686f6573206176616c6961626c6520666f722070757263686173650081525060200191505060405180910390fd5b60005434146105f0576040517f08c379a0000000000000000000000000000000000000000000000000000000008152600401808060200182810382526025815260200180610b386025913960400191505060405180910390fd5b6000600154606303905060006002828154811061060957fe5b90600052602060002090600402019050338160000160006101000a81548173ffffffffffffffffffffffffffffffffffffffff021916908373ffffffffffffffffffffffffffffffffffffffff16021790555083816001019080519060200190610674929190610a6f565b508281600201908051906020019061068d929190610a6f565b5060018160030160006101000a81548160ff02191690831515021790555060016000815480929190600101919050555050505050565b6106cb610aef565b6106d3610aef565b60008090505b606481101561073657600281815481106106ef57fe5b906000526020600020906004020160030160009054906101000a900460ff1682826064811061071a57fe5b60200201901515908115158152505080806001019150506106d9565b508091505090565b6002818154811061074b57fe5b90600052602060002090600402016000915090508060000160009054906101000a900473ffffffffffffffffffffffffffffffffffffffff1690806001018054600181600116156101000203166002900480601f01602080910402602001604051908101604052809291908181526020018280546001816001161561010002031660029004801561081d5780601f106107f25761010080835404028352916020019161081d565b820191906000526020600020905b81548152906001019060200180831161080057829003601f168201915b505050505090806002018054600181600116156101000203166002900480601f0160208091040260200160405190810160405280929190818152602001828054600181600116156101000203166002900480156108bb5780601f10610890576101008083540402835291602001916108bb565b820191906000526020600020905b81548152906001019060200180831161089e57829003601f168201915b5050505050908060030160009054906101000a900460ff16905084565b6000600154905090565b60036020528060005260406000206000915090508060000160009054906101000a900473ffffffffffffffffffffffffffffffffffffffff1690806001018054600181600116156101000203166002900480601f0160208091040260200160405190810160405280929190818152602001828054600181600116156101000203166002900480156109b45780601f10610989576101008083540402835291602001916109b4565b820191906000526020600020905b81548152906001019060200180831161099757829003601f168201915b505050505090806002018054600181600116156101000203166002900480601f016020809104026020016040519081016040528092919081815260200182805460018160011615610100020316600290048015610a525780601f10610a2757610100808354040283529160200191610a52565b820191906000526020600020905b815481529060010190602001808311610a3557829003601f168201915b5050505050908060030160009054906101000a900460ff16905084565b828054600181600116156101000203166002900490600052602060002090601f016020900481019282601f10610ab057805160ff1916838001178555610ade565b82800160010185558215610ade579182015b82811115610add578251825591602001919060010190610ac2565b5b509050610aeb9190610b12565b5090565b60405180610c800160405280606490602082028038833980820191505090505090565b610b3491905b80821115610b30576000816000905550600101610b18565b5090565b9056fe45746865722073656e74206973206e6f7420657175616c20746f2073686f65207072696365a265627a7a7231582006c10de770b260b6f74457ba5b55bdf7ce76962c85c72075538c3852c54e437664736f6c63430005100032",
  "source": "pragma solidity >=0.5.0;\n\ncontract CoShoe{\n\n    struct Shoe {\n        address owner;\n        string name;\n        string image;\n        bool sold;\n    }\n\n\n    // set price to 0.5 ether in wei\n    uint price = 0.5*10**18 wei;\n    uint shoesSold = 0;\n    Shoe[] public shoes;\n    mapping(uint => Shoe) public shoeIdToShoe;\n\n    constructor() public {\n        for (uint i = 0; i < 100; i++) {\n            Shoe memory shoe = Shoe(msg.sender,\"\",\"\",false);\n            shoes.push(shoe);\n\n        }\n    }\n\n    function countShoes() public view returns (uint){\n        return shoes.length;\n    }\n\n    function countShoesSold() public view returns (uint){\n        return shoesSold;\n    }\n\n    function buyShoe(string memory _name, string memory _image) public payable {\n        require(shoesSold<100 ,\"No Shoes avaliable for purchase\");\n        require(msg.value == price,\"Ether sent is not equal to shoe price\");\n\n        // Choosing which shoe to \"buy.\" Logic only holds true on the assumption that there will onle be 100 CoShoes and \n        // the transferring of shoes between buyers is ingored in this scenario\n\n        uint shoeId = 100 - 1 - shoesSold;\n        Shoe storage shoe = shoes[shoeId];\n        shoe.owner = msg.sender;\n        shoe.name = _name;\n        shoe.image = _image;\n        shoe.sold = true;\n\n        // update shoeSold\n        shoesSold++;\n\n\n    }\n\n    // check whther this needs view as well\n    function checkPurchases() public view returns (bool[100] memory ) {\n\n        // again assuming we only ever mint 100 tokens \n        bool[100] memory purchase_states;\n        for (uint i = 0; i <100; i++) {\n            purchase_states[i] = shoes[i].sold;\n\n        }\n\n        return purchase_states;\n    }\n\n\n}",
  "sourcePath": "/home/mikea/BlockchainDev/FTC_Tuts/CoShoe/contracts/CoShoe.sol",
  "compiler": {
    "name": "solc",
    "version": "0.5.16+commit.9c3226ce.Emscripten.clang"
  },
  "schemaVersion": "3.0.23",
  "updatedAt": "2020-03-05T14:43:46.869Z",
  "networkType": "ethereum",
  "devdoc": {
    "methods": {}
  },
  "userdoc": {
    "methods": {}
  }
}